:1000000002127A12189D1219C9121807121A081230
:1000100019E7120E8A12199A12145112198712181E
:10002000D81219AA12004E12162AE51124FB70F7F5
:0F003000900055E07002A3E060ED12169E80E88C
:030043000213069F
:10004B000213EA53C0FEE4F58475931975840275A7
:10005B00F10DF584F5B943B90475BA0175BC40438C
:07006B00BC2FF5BDF5BE221C
:100073000214AA0203A8E86480F8E933E8336011A4
:100083000460F0ED33EC337009E8FCE9FDEAFEEBC4
:10009300FF220460DED3EB9FEA9EE99DE8C2E78C72
:1000A300F0C2F795F0400CE8CCF8E9CDF9EACEFAC6
:1000B300EBCFFB12037385D0F05804700320D5B344
:1000C300E80470075002B2D50203B292D5EC046083
:1000D300F7E4CCC0E0C398F8603B94186008400D87
:1000E300D0E0FB02038AE4FBFAC9FC8028E830E491
:1000F30006E4C9FBE4CAFCE830E305E4C9CACBFC67
:10010300E854076010F8C3E913F9EA13FAEB13FB99
:10011300EC13FCD8F130F52FC3E49CFCEF9BFFEE0E
:100123009AFEED99FDD0E0FBEF4E4D4C701222DBB1
:10013300030203AFEC2CFCEF33FFEE33FEED33FD94
:10014300ED30E7EB02038AEF2BFFEE3AFEED39FDCC
:10015300D0E0FB50130BBB00030203B2ED13FDEE23
:1001630013FEEF13FFEC13FC02038AEC4D6011E85E
:10017300497017ED33EC3304600DE4FCFFFEFD2200
:10018300E933E8330470F80203A8120373580460D8
:1001930009E4CC248150062850090203B228400305
:1001A3000203AFC0E0EB4A7044B98006D0E0FB0223
:1001B300039EEF4E701CBD8008EBFFEAFEE9FD8055
:1001C300EBE98DF0A4FEE5F0020257E9CDF9EAFE72
:1001D300EBFFEF89F0A4FCE5F0CE89F0A42EFFE459
:1001E30035F0CD89F0A42DFEE435F08067EF4E7035
:1001F30005BD80D780C3EF8BF0A4ACF0EE8BF0A4E9
:100203002CFCE435F0F8EF8AF0A42CE5F038FCE49C
:1002130033CB8DF0A42CFCE5F03BF8EE8AF0A42C54
:10022300FCE5F038F8E433CF89F0A42CFCE5F03892
:10023300CF3400CE89F0A42FFFE5F03EFEE433C9AE
:100243008DF0A42EFEE5F039CD8AF0A42FFFE5F062
:100253003EFEE43DFD33D0E0FB50070BBB000F0235
:1002630003B2EC2CFCEF33FFEE33FEED33FD020360
:100273008A74F8CC6480CCC86480C8F58204604F6B
:10028300C3EB9FF5F0EA9E42F0E99D42F0E89C45FE
:10029300F0603C501DE5825FFFE582D313CB5BCB5F
:1002A300F42B5582FB50280ABA002409B900200810
:1002B300801DE5825BFBE582D313CF5FCFF4C313CD
:1002C3002F5582FF50090EBE00050DBD00010CC362
:1002D300EB9FF5F0EA9E42F0E99D42F0E89C45F081
:1002E3006007CC4820E701B3EC22ED33EC33600A1E
:1002F300047003BD8004ECB2E7FC2275F020800E8D
:1003030075F010800575F0087D007E007F00339244
:10031300D530D5031204F9EC334010EF33FFEE333D
:10032300FEED33FDEC33FCD5F0ED22E5F0247EA2A7
:10033300D513CC92E7CDCEFF22EDD2E7CD33EC330C
:1003430092D524814006E4FFFEFDFC22FCE4CFCEDF
:10035300CDCC24E0501174FF80EDC3CC13CCCD136E
:10036300CDCE13CECF13CF0470F030D5DE0204F917
:10037300E9D2E7C933E833F892D5EDD2E7CD33ECD0
:1003830033FC5002B2D522EC30E7100FBF000C0E45
:10039300BE00080DBD00040BEB6014A2D5EB13FCEB
:1003A300ED92E7FD2274FFFCFDFEFF22E480F8A23C
:1003B300D574FF13FC7D80E480EFBB010689828A3C
:1003C30083E0225002E722BBFE02E32289828A8372
:1003D300E49322BC000BBE0029EF8DF084FFADF047
:1003E30022E4CCF875F008EF2FFFEE33FEEC33FC7C
:1003F300EE9DEC984005FCEE9DFE0FD5F0E9E4CEB2
:10040300FD22EDF8F5F0EE8420D21CFEADF075F080
:1004130008EF2FFFED33FD4007985006D5F0F22289
:10042300C398FD0FD5F0EA2275F008758200EF2F0F
:10043300FFEE33FECD33CDCC33CCC58233C5829BA7
:10044300ED9AEC99E58298400CF582EE9BFEED9ACD
:10045300FDEC99FC0FD5F0D6E4CEFBE4CDFAE4CC69
:10046300F9A88222B800C1B90059BA002DEC8BF06B
:1004730084CFCECDFCE5F0CBF97818EF2FFFEE3328
:10048300FEED33FDEC33FCEB33FB10D70399400453
:10049300EB99FB0FD8E5E4F9FA227818EF2FFFEE7A
:1004A30033FEED33FDEC33FCC933C910D7059BE9AB
:1004B3009A4007EC9BFCE99AF90FD8E0E4C9FAE407
:1004C300CCFB2275F010EF2FFFEE33FEED33FDCCA6
:1004D30033CCC833C810D7079BEC9AE899400AED90
:1004E3009BFDEC9AFCE899F80FD5F0DAE4CDFBE438
:1004F300CCFAE4C8F922C3E49FFFE49EFEE49DFD29
:10050300E49CFC22E8600FECC313FCED13FDEE1337
:10051300FEEF13FFD8F122BB010789828A8302060B
:100523004E5005E9F8020642BBFE05E9F802065AF9
:1005330089828A83020666BB010DE58229F582E57D
:10054300833AF58302064E5007E92582F8020642F4
:10055300BBFE07E92582F802065AE58229F582E502
:10056300833AF583020666BB010789828A83020503
:10057300D85005E9F80206ACBBFE05E9F80206B857
:1005830022BB010DE58229F582E5833AF583020555
:10059300D85007E92582F80206ACBBFE07E925829D
:1005A300F80206B822BB010DE58229F582E5833AFC
:1005B300F5830206835007E92582F8020676BBFE1F
:1005C30007E92582F802068FE58229F582E5833A59
:1005D300F58302069CECF0A3EDF0A3EEF0A3EFF09D
:1005E30022A8828583F0D083D0821205FB1205FBFB
:1005F3001205FB1205FBE473E493A3C583C5F0C5A1
:1006030083C8C582C8F0A3C583C5F0C583C8C582A6
:10061300C822EC8EF0A4CCC5F0CCCDF8EFA4CEC5A7
:10062300F02DFDE43CFCE8A42EC8C5F03DFDE43C00
:10063300FCEFA4FFE5F028FEE43DFDE43CFC22E6EC
:10064300FC08E6FD08E6FE08E6FF22E0FCA3E0FD69
:10065300A3E0FEA3E0FF22E2FC08E2FD08E2FE08BD
:10066300E2FF22E493FC740193FD740293FE74038E
:1006730093FF22E6FB08E6F908E6FA08E6CBF82240
:10068300E0F8A3E0F9A3E0FAA3E0FB22E2FB08E22F
:10069300F908E2FA08E2CBF822E493F8740193F93B
:1006A300740293FA740393FB22ECF608EDF608EE5A
:1006B300F608EFF622ECF208EDF208EEF208EFF29C
:1006C30022E4F52FF530F531F532F533F534F53510
:1006D300753664F537F5847591105391F07593135E
:1006E30012194E7F017E001216D6D285D291D2976F
:1006F300AF36AE351218BB7F0B1219091219D88EFB
:10070300238F24C3E5249464E523940050041593B4
:10071300802FD3E524942CE5239401400405938092
:1007230020D3E52494C8E52394004015E524942CB4
:10073300E5239401500B740A2536F536E43535F577
:1007430035C3E5249464E52394004094D3E52494CD
:10075300C8E5239400508912194ED290D286D287CD
:10076300AF36AE351218BB7F0B1219091219D88E8A
:10077300258F2612194ED286D290D297AF36AE3538
:100783001218BB7F0B1219091219D88E278F281242
:10079300194ED291D285D287AF36AE351218BB7FB0
:1007A3000B1219091219D88E298F2A12194ED287C2
:1007B300D290D291AF36AE351218BB7F0B12190906
:1007C3001219D88E2B8F2C12194ED297D286D2851E
:1007D300AF36AE351218BB7F0B1219091219D88E1A
:1007E3002D8F2E12194EC3E5249526E5239525500A
:1007F3001BC3E5269524FFE5259523FED3EF94142B
:10080300EE940050028019433704801AC3E52495FF
:1008130026FFE5239525FED3EF9414EE94005006AE
:10082300752F00753001C3E528952AE527952950D2
:100833001BC3E52A9528FFE5299527FED3EF9414DA
:10084300EE940050028019433702801AC3E52895BD
:100853002AFFE5279529FED3EF9414EE9400500662
:10086300753100753201C3E52C952EE52B952D507E
:100873001BC3E52E952CFFE52D952BFED3EF94148A
:10088300EE940050028019433701801AC3E52C957A
:100893002EFFE52B952DFED3EF9414EE9400500616
:1008A30075330075340190003CE0540364017021FA
:1008B300E53714601214601314600E14601124FEE3
:1008C300600B0470658059804D804180358029809C
:1008D3001F90003CE0540364027052E53714601823
:1008E30014602914601C14603724FE602904703AD4
:1008F300900069E054F8F022900069E054F8440154
:10090300F022900069E054F84402F022900069E07C
:1009130054F84403F022900069E054F84404F022B0
:10092300900069E054F84405F02212177A229000EF
:100933006BE0FF90006AE004F0C39F5003020B18C2
:1009430090005BE0FEA3E0FF90005AE02FFF9000D1
:1009530059E03EFE90005EE02FFF90005DE03EFE1A
:100963007C007D031203D690005FEEF0A3EFF090BE
:10097300003CE0540364016003020A43900069E011
:100983005407146031146049146061146079147061
:1009930003020A2524056003020A4090005FE0FE7B
:1009A300A3E0FFC390005EE09F90005DE09E4003E4
:1009B300020B18020AE390005FE0FEA3E0FFD3906E
:1009C300005CE09F90005BE09E5003020B18020A5C
:1009D300E390005FE0FEA3E0FFC390005AE09F9026
:1009E3000059E09E4003020B18020AE390005FE007
:1009F300FEA3E0FFD390005EE09F90005DE09E5079
:100A030003020B18020AE390005FE0FEA3E0FFC3BA
:100A130090005CE09F90005BE09E4003020B180295
:100A23000AE390005FE0FEA3E0FFD390005AE09F4B
:100A3300900059E09E5003020B18020B07020B11A2
:100A430090003CE0540364026003020B18900069B9
:100A5300E0540714603014604414605814606C143C
:100A63007003020AF224056003020B1190005FE099
:100A7300FEA3E0FFD390005EE09F90005DE09E50F8
:100A830003020B18805A90005FE0FEA3E0FFC390BF
:100A9300005AE09F900059E09E507A804390005F97
:100AA300E0FEA3E0FFD390005CE09F90005BE09E3C
:100AB3004063802C90005FE0FEA3E0FFC390005EE4
:100AC300E09F90005DE09E504C801590005FE0FE3B
:100AD300A3E0FFD390005AE09F900059E09E403579
:100AE300900069E0FF54F8FEEF0454074E801B901A
:100AF300005FE0FEA3E0FFC390005CE09F90005B1B
:100B0300E09E5011900069E054F8F00211549000F7
:100B130069E054F8F0228B238A248925900004127B
:100B230005A8C000C001C002C003AB23AA24A925A5
:100B330012051AD003D002D001D000120079AB23E2
:100B4300AA24A925900008120584E92410F9E43A9F
:100B5300FAC003C002C00112051AAB23AA24A925B7
:100B63009000081205A812007DD001D002D0031214
:100B7300056AAB23AA24A92590000812053A900020
:100B8300141205A812016EAB23AA24A925900020F4
:100B930012058490001012053A9000181205A8124D
:100BA300016EAB23AA24A92590002412058490008A
:100BB3000C1205A8C000C001C002C003AB23AA24C5
:100BC300A92590000812053AD003D002D001D00025
:100BD300120079AB23AA24A92590001C1205A812A0
:100BE300016EAB23AA24A925900028120584900046
:100BF3002412053A9000201205A812007DAB23AA07
:100C030024A9259000281205A812007DAB23AA244D
:100C1300A92590003812058490003012053A9000FF
:100C2300381205A8120274AB23AA24A92560074031
:100C330005900030800390003812053AAB23AA24B4
:100C4300A92590003812058490003412053A9000CB
:100C5300381205A8120274AB23AA24A925500590C3
:100C63000034800390003812053AAB23AA24A92547
:100C7300900038020584120931050EE50E70020555
:100C83000D900069E030E627E054BFF0050FD3E58F
:100C93000F941274809480400C750F1490006B7441
:100CA30005F00217AF120F55E4F50DF50E806FD363
:100CB300900049E0950E900048E0950D5060E4F5F2
:100CC3000DF50EF50FE0FEA3E0FF7C007D1E120381
:100CD300D6EF2401FFE43EFEC3900049E09FF0906D
:100CE3000048E09EF0C3A3E0942C900048E09401F8
:100CF30050077401F0A3742CF0900069E0FF54F8DE
:100D0300FEEF045407FD4EF0EDD3940574809480F8
:100D13004004E054F8F0120F55E490006AF090009C
:100D23003EE0FCA3E0FDA3E0FEA3E0FFE4FBFA79D1
:100D330080783F12007D90003E1205D8E4FFFE7DCF
:100D4300387C4390003EE0F8A3E0F9A3E0FAA3E087
:100D5300FB120274500C90003E1205E4433800006D
:100D63008026E4FFFE7DB87C4390003EE0F8A3E0DC
:100D7300F9A3E0FAA3E0FB120274600C400A9000AE
:100D83003E1205E443B8000090003EE0FCA3E0FD02
:100D9300A3E0FEA3E0FF12033C1219212290003DC1
:100DA300E0D39464748094805003020E89E4F0903D
:100DB3000044E0FCA3E0FDE41203039000041205E9
:100DC300D87B017A007900120B1990003EE0FCA356
:100DD300E0FDA3E0FEA3E0FF900038E0F8A3E0F914
:100DE300A3E0FAA3E0FB12007D90003E1205D87F3A
:100DF300007E807DAC7C4490003EE0F8A3E0F9A344
:100E0300E0FAA3E0FB120274600C400A7F007E80CC
:100E13007DAC7C44800E90003EE0FCA3E0FDA3E0AB
:100E2300FEA3E0FF90003E1205D8E4FFFE7D8A7C1E
:100E33004390003EE0F8A3E0F9A3E0FAA3E0FB123D
:100E430002745009E4FFFE7D8A7C43800E90003ECD
:100E5300E0FCA3E0FDA3E0FEA3E0FF90003E12054B
:100E6300D890003EE0FCA3E0FDA3E0FEA3E0FF1268
:100E7300033C1219217BFF7A1A795A900044E0FC53
:100E8300A3E0FD12100E2290003CE05403F0E4A313
:100E9300F0A31205E400000000E4900042F0A3F088
:100EA3009000487403F0A37484F0E4900044F0A32A
:100EB300F09000467406F0A374D6F0E490004EF070
:100EC30090004A1205E400000000E490004FF0A3F4
:100ED300F0900051F0900064F0A3F0900055F0A35F
:100EE300F0900067F0900066F0900059F0A3F09046
:100EF300005BF0A3F090005DF0A3F090005FF0A31F
:100F0300F0900061F0A3F0900063F0900052740839
:100F1300F0E490006EF0A3F0900070F0A3F0900066
:100F230075F0900072F0A3F0900074F0F51090004B
:100F330068E054F0F0A3E054F8F0E490006CF0A300
:100F4300F0900069E054BFF0E4A3F0A3743CF00216
:100F530010B3758401E4F5DDF5DE90003CE0540345
:100F630064017028900069E054071460151460143C
:100F73001460131460121460112405600302100737
:100F8300802D807180648051803E803190003CE0F0
:100F930054036402706E900069E0540714601E14D9
:100FA300602614603414604214604A240570557539
:100FB300840143DD2075840143DE048028758401A8
:100FC30075840143DE04800975840143DE10758452
:100FD3000175840143DD02802B75840143DE1075A6
:100FE300840143DD08758401801A758401758401C9
:100FF30043DD08800975840143DD20758401758410
:101003000143DE0175840175F104228B258A26894B
:10101300278C288D29E4F52AF52BF52CF52DF52EB3
:1010230085842EF5847599203099FDC29975992090
:101033003099FDC299AB25AA26A9271203BD6016D4
:101043000527E5277002052614F91203BDF599302B
:1010530099FDC29980DFE52945286050752A2775D7
:101063002B10C3E52B9401E52A9400403FAC2AAD35
:101073002BAE28AF291203D68E2C8F2DC3E52D94CA
:1010830001E52C94004014AE2CAF2D7C007D0A1298
:1010930003D6AF05ED2430FF121974AE2AAF2B7CB3
:1010A300007D0A1203D68E2A8F2B80B6852E8422CA
:1010B3009000141205E43CF5C28F9000181205E469
:1010C3000000000090001C1205E4000000009000E6
:1010D300201205E4000000009000241205E4000043
:1010E30000009000281205E40000000090000412A4
:1010F30005E400000000900046E0FCA3E0FDE412DC
:1011030003039000001205D89000081205E40000C4
:10111300000090000C1205E4000000009000101283
:1011230005E4000000009000381205E40000000010
:101133009000301205E440A00000900030E0FCA3D2
:10114300E0FDA3E0FEA3E0FF1202ED9000340205F0
:10115300D8E4F584AF8CEFFEAD8A7C00E42DFFEC80
:101163003E90004FF0A3EFF0E4F584F58CF58A9000
:10117300006AE0D3940C74809480502EE5116405CA
:10118300702890003CE0FF1313543FFEEF5403FF1D
:10119300EE04543FFE25E025E04FF0EEC394327495
:1011A300809480400C121744800790003CE0540365
:1011B300F090004FE0FEA3E07803CEC313CE13D824
:1011C300F9FFC374FF9F90006DF074FF9E90006C55
:1011D300F0E0F5D5E0A3E0F5D4E490006AF09000E8
:1011E30069E04440F00211EB90004AE0F8A3E0F913
:1011F300A3E0FAA3E0FB90004FE0FEA3E0FFE4FCD2
:10120300FDEB2FFFEA3EFEED39FDEC38FC90004A82
:101213001205D890004EE004F0C3940874809480C3
:101223004027E4F090004AE0FCA3E0FDA3E0FEA326
:10123300E0FF7803120507900042EEF0A3EFF09071
:10124300004A1205E400000000900042E07002A38F
:10125300E06005900042800390004FE0FEA3E0FBB6
:10126300AA06E4F9F8FF7E987D3AFC1215E6900091
:1012730044EEF0A3EFF022787FE4F6D8FD75813BCE
:101283000212C1020003E493A3F8E493A34003F61C
:101293008001F208DFF48029E493A3F85407240CB7
:1012A300C8C333C4540F4420C8834004F456800198
:1012B30046F6DFE4800B01020408102040809019F9
:1012C30061E47E019360BCA3FF543F30E509541FE2
:1012D300FEE493A360010ECF54C025E060A840B89C
:1012E300E493A3FAE493A3F8E493A3C8C582C8CA1A
:1012F300C583CAF0A3C8C582C8CAC583CADFE9DEED
:10130300E780BEC0E0C0F0C083C082C0D075D0000B
:10131300C000C001C002C003C004C005C006C007AE
:1013230075840075D50075D40075D30075D200900F
:101333000069E030E60EE054BFF0900051E4F01293
:101343000F55801D900051E004F0C3940A748094FB
:1013530080400E75840053D1EF1219F4900051E4CC
:10136300F0D007D006D005D004D003D002D001D0EE
:1013730000D0D0D082D083D0F0D0E0327F0B1219CE
:10138300091219D8900057EEF0A3EFF0900057E040
:10139300FEA3E0FF900062E02FF0900061E03EF0DA
:1013A300900063E004F0E064087024900061E0FEC4
:1013B300A3E07803CEC313CE13D8F9FF900064EEF5
:1013C300F0A3EFF0E4900061F0A3F0900063F07FEE
:1013D300041219091219D8900055EEF0A3EFF090FA
:1013E3000052E0FF0219FEC0E0C0F0C083C082C01B
:1013F300D075D000C000C001C002C003C004C00546
:10140300C006C0077521007522007584005391BF83
:10141300E51124FB600E04701A12155012137F128B
:101423000C79800F90003DE004F012155012137FE9
:10143300120931D007D006D005D004D003D002D092
:1014430001D000D0D0D082D083D0F0D0E0327584E8
:1014530001E4F5D2F5DE75E20775E133F5E4F5E372
:10146300F5E5F5F2F5F9F5F775D19075D30575D472
:101473000175D96875DA6875DB68F5E775E601F516
:10148300EA75E901F5EC75EB0175DF93F5D7F5FB2B
:1014930075EF8675840153EF7FF5F3F5F475F184E9
:1014A30075840175FA0122C0E0C0F0C083C082C018
:1014B300D075D000C000C001C002C003C004C00585
:1014C300C006C00753C0FE75840075BD00E5BE5459
:1014D300036403700B12187D7511077510018003E7
:1014E30043C001D007D006D005D004D003D002D02A
:1014F30001D000D0D0D082D083D0F0D0E032E4F558
:1015030023F5241218568E238F24C3E5249484E5EF
:10151300239403501BE52494BCE5239402401190CB
:101523000066E004F094407480948040D6E4F02296
:10153300D3E5249484E523940340057510038003C5
:10154300751004E4900066F012159B80B69000526B
:10155300E0640870111219D8900059EEF0A3EFF06F
:10156300E4900052F022900052E070121219D890C9
:10157300005BEEF0A3EFF09000527403F0229000B2
:1015830052E0640370111219D890005DEEF0A3EFDE
:10159300F09000527408F022E51014601124FE60EC
:1015A3001514601A14601F146024240680287BFF1E
:1015B3007A1A791580267BFF7A1A7923801E7BFF9E
:1015C3007A1A793180167BFF7A1A7940800E7BFF75
:1015D3007A1A794C80067BFF7A1A790EE4FDFC12A5
:1015E300100E22C2D5E830E70FB2D5E4C39BFBE46B
:1015F3009AFAE499F9E498F8EC30E717B2D51216A1
:101603001C120467E4C39BFBE49AFAE499F9E49897
:10161300F8800312046730D50DE4C39FFFE49EFEF8
:10162300E49DFDE49CFC22E511B4080050309016C3
:1016330038F828287302165C021650021653021655
:101643005602166402165902166102165E02193812
:1016530002182F021665020DA080030219BA121890
:101663007D2290003E1205E44338000090003EE0E6
:10167300FCA3E0FDA3E0FEA3E0FF12033C1219214B
:101683001206C41217DD758402E4F5A6D2AF121850
:10169300F143C00143B80875110422D3900056E00A
:1016A3009498900055E09403500DC3A3E094A89040
:1016B3000055E094025016900066E004F0C3944095
:1016C30074809480400C12187D75110122E49000FF
:1016D30066F022E4F538F539F53AF53BF538F53996
:1016E300C3E5399FE5389E5021E4F53AF53B053BC8
:1016F300E53B7002053AE53BB4D6F3E53AB406EEB2
:101703000539E53970DA053880D622758401E4F5A8
:10171300DDF5DE75840175F10475840153EF7FC235
:1017230085D290C286D291C287D297758402759171
:1017330002758E02759A02759902759202758F026F
:1017430022758401E4F5DDF5DE75840175F1047518
:10175300840153EF7FC285C290C286C291C287C201
:1017630097758402759102758E02759A02759902B6
:10177300759202758F022290003E1205E4433800F1
:101783000090003EE0FCA3E0FDA3E0FEA3E0FF1217
:10179300033C1219211217DD120F557F647E0012CC
:1017A30016D61217447F327E000218BB900069E000
:1017B300FF54F8FEEF045407FD4EF0EDD394057487
:1017C3008094804004E054F8F0120F55E4F584D27D
:1017D3008CF58443D11075110522758401E4F5DD80
:1017E300F5DE75840175F10475840143EF8075841A
:1017F300027591C0758EC0759AC07599C07592C0F7
:10180300758FC022759C1F759D0A758908758A0896
:10181300758B08758C08758D087593087595087513
:10182300944075BA4075BB4075B9422212174412F1
:101833000E8AE4F5A8F5B8F5C0C2AF12170E7F0AF9
:101843007E001216D61217447F327E001218BB7523
:10185300110322E4FFFEF584759114F59243918000
:10186300E5915440644070F85391BFAF97EFFEADDC
:10187300967C00E42DFFEC3EFE22121744C2AFE437
:10188300F584C28CF58453D1EFF584F58CF58AF594
:1018930084F5D5F5D4F5D3F5D222758402E4F5CADF
:1018A300F5DC121744120E8A90003CE054FC44010C
:1018B300F0751101E4F51022E4F538F539F538F542
:1018C30039C3E5399FE5389E500A0539E53970F18A
:1018D300053880ED22E4F58443D10153D6FE53D677
:1018E300FD43D601F5D4F5D5F58453D1EF22E4F5C4
:1018F300847591105391F043910BF5847593197589
:10190300947543B81022E4F5845391F0EF42914368
:101913009180E59130E6FBE4F5845391BF22AD0756
:10192300AC06758401ECFFFBF5E78DE68BEA8DE9E8
:101933008FEC8DEB227BFF7A1A7953E4FDFC1210B6
:101943000E12174412150175110222C285C286C2F6
:1019530087C290C291C2977FC87E000218BB020D56
:101963000000010F00020B000002080000010A0042
:1019730000E4F52F85842FF5848F993099FDC29962
:10198300852F842275840275DB06E4F584F594F5CE
:1019930092F59353B8EF22E4F584439850438801BA
:1019A300759B03759AF922E4F584F58E438E0175D0
:1019B3008901F58AF58C2212159B7BFF7A1A795FD0
:1019C300E4FDFC02100E758402E4F5DAF5D775E93F
:1019D300FF75EAFF22AF97EFFEAD967C00E42DFF83
:1019E300EC3EFE22C2AFE4F5A8F5B8F5C075E8C039
:1019F3002212187D75110775100622E4F5845391A0
:101A0300F0EF429122E4F584F5DD220A4E6F6D6119
:101A13006C000A4F7665722043757272656E7400AE
:101A23000A4F76657220566F6C74616765000A55BC
:101A33006E64657220566F6C74616765000A486155
:101A43006C6C204572726F72000A5374616C6C0087
:101A53000A53746172740052504D3D000A6C6F61F9
:0D1A630064696E67207265626F6F740A001F
:00000001FF
